:020000020000FC
:1000000047C0909817D000B3909A0095007739F0C8
:100010000160071721F0702F03D0102F0895089565
:10002000013109F415C0013209F41BC0013409F48F
:1000300045C0089541E04A95F1F7089544E055EA36
:100040006EEF6A95F1F75A95D9F74A95C1F7089579
:10005000232F10D023952730E1F731E00E942800AC
:100060000895232F07D02A952030E1F736E00E942B
:1000700031000895E0ECF0E0E20FC89500FC00E0EC
:1000800003B905BA00E103B9D9DFBBDF322F089508
:1000900000E10EBF0FEF0DBF11277727222702B116
:1000A000006102B903B1006103B90FEF04BB05BBE6
:1000B00001B3016001BB0FEF02BB36E0A2DFFECF50
:0800C000FFFEFDFBF7EFDF007E
:00000001FF
